{
  "contractName": "ApprovalContract",
  "abi": [
    {
      "constant": false,
      "inputs": [],
      "name": "approve",
      "outputs": [],
      "payable": true,
      "stateMutability": "payable",
      "type": "function"
    },
    {
      "constant": false,
      "inputs": [
        {
          "name": "_receiver",
          "type": "address"
        }
      ],
      "name": "deposit",
      "outputs": [],
      "payable": true,
      "stateMutability": "payable",
      "type": "function"
    },
    {
      "constant": true,
      "inputs": [],
      "name": "approver",
      "outputs": [
        {
          "name": "",
          "type": "address"
        }
      ],
      "payable": false,
      "stateMutability": "view",
      "type": "function"
    },
    {
      "constant": true,
      "inputs": [],
      "name": "receiver",
      "outputs": [
        {
          "name": "",
          "type": "address"
        }
      ],
      "payable": false,
      "stateMutability": "view",
      "type": "function"
    },
    {
      "constant": true,
      "inputs": [],
      "name": "sender",
      "outputs": [
        {
          "name": "",
          "type": "address"
        }
      ],
      "payable": false,
      "stateMutability": "view",
      "type": "function"
    }
  ],
  "bytecode": "0x608060405234801561001057600080fd5b50610369806100206000396000f3fe60806040526004361061006d576000357c0100000000000000000000000000000000000000000000000000000000900463ffffffff16806312424e3f14610072578063141a8dd81461007c57806367e404ce146100d3578063f340fa011461012a578063f7260d3e1461016e575b600080fd5b61007a6101c5565b005b34801561008857600080fd5b50610091610247565b604051808273ffffffffffffffffffffffffffffffffffffffff1673ffffffffffffffffffffffffffffffffffffffff16815260200191505060405180910390f35b3480156100df57600080fd5b506100e861025f565b604051808273ffffffffffffffffffffffffffffffffffffffff1673ffffffffffffffffffffffffffffffffffffffff16815260200191505060405180910390f35b61016c6004803603602081101561014057600080fd5b81019080803573ffffffffffffffffffffffffffffffffffffffff169060200190929190505050610284565b005b34801561017a57600080fd5b50610183610317565b604051808273ffffffffffffffffffffffffffffffffffffffff1673ffffffffffffffffffffffffffffffffffffffff16815260200191505060405180910390f35b600160009054906101000a900473ffffffffffffffffffffffffffffffffffffffff1673ffffffffffffffffffffffffffffffffffffffff166108fc3073ffffffffffffffffffffffffffffffffffffffff16319081150290604051600060405180830381858888f19350505050158015610244573d6000803e3d6000fd5b50565b73c10674bfce6a9933db3dd6f4ee895b8970ab5b7881565b6000809054906101000a900473ffffffffffffffffffffffffffffffffffffffff1681565b60003411151561029357600080fd5b336000806101000a81548173ffffffffffffffffffffffffffffffffffffffff021916908373ffffffffffffffffffffffffffffffffffffffff16021790555080600160006101000a81548173ffffffffffffffffffffffffffffffffffffffff021916908373ffffffffffffffffffffffffffffffffffffffff16021790555050565b600160009054906101000a900473ffffffffffffffffffffffffffffffffffffffff168156fea165627a7a723058201c03125736fed57e00a441ba830290d1f4798caf4896bd901bd59ea6e86b71f30029",
  "source": "pragma solidity ^0.5.0;\r\ncontract ApprovalContract {\r\n address   public sender;\r\n address payable public receiver;\r\naddress constant public approver = 0xC10674bFce6a9933db3Dd6F4ee895b8970Ab5b78;\r\n function deposit(address payable _receiver) external payable {\r\n    require(msg.value > 0);\r\n    sender = msg.sender;\r\n    receiver = _receiver; \r\n   \r\n }\r\n function approve() external payable {\r\n      \r\n    receiver.transfer(address(this).balance  );\r\n    \r\n   \r\n        \r\n    \r\n    \r\n }\r\n \r\n}",
  "sourcePath": "C:/Users/Administrator/Desktop/what/contracts/Dice.sol",
  "compiler": {
    "name": "solc",
    "version": "0.5.0+commit.1d4f565a.Emscripten.clang"
  },
  "schemaVersion": "3.0.2",
  "updatedAt": "2019-06-02T16:10:57.851Z",
  "devdoc": {
    "methods": {}
  },
  "userdoc": {
    "methods": {}
  }
}