{
  "contractName": "Dice",
  "abi": [
    {
      "constant": true,
      "inputs": [],
      "name": "receiver",
      "outputs": [
        {
          "name": "",
          "type": "address"
        }
      ],
      "payable": false,
      "stateMutability": "view",
      "type": "function",
      "signature": "0xf7260d3e"
    },
    {
      "payable": true,
      "stateMutability": "payable",
      "type": "fallback"
    },
    {
      "anonymous": false,
      "inputs": [
        {
          "indexed": false,
          "name": "bidder",
          "type": "address"
        },
        {
          "indexed": false,
          "name": "currentBet",
          "type": "uint8"
        }
      ],
      "name": "NewBetIsSet",
      "type": "event",
      "signature": "0x1a6d1c7cdda3e4348ddfb32842a3b51955212e84b454ebc11b068be843ee3b12"
    },
    {
      "anonymous": false,
      "inputs": [
        {
          "indexed": false,
          "name": "bidder",
          "type": "address"
        },
        {
          "indexed": false,
          "name": "currentBet",
          "type": "uint8"
        },
        {
          "indexed": false,
          "name": "destiny",
          "type": "uint8"
        }
      ],
      "name": "GameResult",
      "type": "event",
      "signature": "0xf2c19256ceef03eec7a00ba5e27726b55e9224b711266400dfe19267ac36f44d"
    },
    {
      "constant": false,
      "inputs": [
        {
          "name": "_bet",
          "type": "uint8"
        },
        {
          "name": "_isHigher",
          "type": "bool"
        }
      ],
      "name": "getNewbet",
      "outputs": [
        {
          "name": "",
          "type": "uint8"
        }
      ],
      "payable": true,
      "stateMutability": "payable",
      "type": "function",
      "signature": "0xb849ec67"
    },
    {
      "constant": false,
      "inputs": [],
      "name": "roll",
      "outputs": [
        {
          "name": "",
          "type": "address"
        },
        {
          "name": "",
          "type": "uint8"
        },
        {
          "name": "",
          "type": "uint8"
        }
      ],
      "payable": false,
      "stateMutability": "nonpayable",
      "type": "function",
      "signature": "0xcd5e3c5d"
    }
  ],
  "bytecode": "0x608060405234801561001057600080fd5b50610e06806100206000396000f3fe608060405260043610610057576000357c0100000000000000000000000000000000000000000000000000000000900463ffffffff168063b849ec6714610059578063cd5e3c5d146100b0578063f7260d3e14610121575b005b6100946004803603604081101561006f57600080fd5b81019080803560ff169060200190929190803515159060200190929190505050610178565b604051808260ff1660ff16815260200191505060405180910390f35b3480156100bc57600080fd5b506100c5610464565b604051808473ffffffffffffffffffffffffffffffffffffffff1673ffffffffffffffffffffffffffffffffffffffff1681526020018360ff1660ff1681526020018260ff1660ff168152602001935050505060405180910390f35b34801561012d57600080fd5b50610136610d9f565b604051808273ffffffffffffffffffffffffffffffffffffffff1673ffffffffffffffffffffffffffffffffffffffff16815260200191505060405180910390f35b6000801515600160003373ffffffffffffffffffffffffffffffffffffffff1673ffffffffffffffffffffffffffffffffffffffff16815260200190815260200160002060000160019054906101000a900460ff1615151415156101db57600080fd5b60018060003373ffffffffffffffffffffffffffffffffffffffff1673ffffffffffffffffffffffffffffffffffffffff16815260200190815260200160002060000160016101000a81548160ff02191690831515021790555061023d610dc4565b600160003373ffffffffffffffffffffffffffffffffffffffff1673ffffffffffffffffffffffffffffffffffffffff16815260200190815260200160002060000160006101000a81548160ff021916908360ff16021790555082600160003373ffffffffffffffffffffffffffffffffffffffff1673ffffffffffffffffffffffffffffffffffffffff16815260200190815260200160002060000160046101000a81548160ff021916908360ff16021790555081600160003373ffffffffffffffffffffffffffffffffffffffff1673ffffffffffffffffffffffffffffffffffffffff16815260200190815260200160002060000160026101000a81548160ff0219169083151502179055507f1a6d1c7cdda3e4348ddfb32842a3b51955212e84b454ebc11b068be843ee3b1233600160003373ffffffffffffffffffffffffffffffffffffffff1673ffffffffffffffffffffffffffffffffffffffff16815260200190815260200160002060000160009054906101000a900460ff16604051808373ffffffffffffffffffffffffffffffffffffffff1673ffffffffffffffffffffffffffffffffffffffff1681526020018260ff1660ff1681526020019250505060405180910390a1600160003373ffffffffffffffffffffffffffffffffffffffff1673ffffffffffffffffffffffffffffffffffffffff16815260200190815260200160002060000160009054906101000a900460ff16905092915050565b600080600060011515600160003373ffffffffffffffffffffffffffffffffffffffff1673ffffffffffffffffffffffffffffffffffffffff16815260200190815260200160002060000160019054906101000a900460ff1615151415156104cb57600080fd5b60016104d5610dc4565b01600160003373ffffffffffffffffffffffffffffffffffffffff1673ffffffffffffffffffffffffffffffffffffffff16815260200190815260200160002060000160036101000a81548160ff021916908360ff1602179055506000600160003373ffffffffffffffffffffffffffffffffffffffff1673ffffffffffffffffffffffffffffffffffffffff16815260200190815260200160002060000160016101000a81548160ff02191690831515021790555060011515600160003373ffffffffffffffffffffffffffffffffffffffff1673ffffffffffffffffffffffffffffffffffffffff16815260200190815260200160002060000160029054906101000a900460ff1615151480156106915750600160003373ffffffffffffffffffffffffffffffffffffffff1673ffffffffffffffffffffffffffffffffffffffff16815260200190815260200160002060000160009054906101000a900460ff1660ff16600160003373ffffffffffffffffffffffffffffffffffffffff1673ffffffffffffffffffffffffffffffffffffffff16815260200190815260200160002060000160039054906101000a900460ff1660ff16115b15610851573373ffffffffffffffffffffffffffffffffffffffff166108fc600160003373ffffffffffffffffffffffffffffffffffffffff1673ffffffffffffffffffffffffffffffffffffffff16815260200190815260200160002060000160049054906101000a900460ff1660ff169081150290604051600060405180830381858888f1935050505015801561072e573d6000803e3d6000fd5b507ff2c19256ceef03eec7a00ba5e27726b55e9224b711266400dfe19267ac36f44d33600160003373ffffffffffffffffffffffffffffffffffffffff1673ffffffffffffffffffffffffffffffffffffffff16815260200190815260200160002060000160009054906101000a900460ff16600160003373ffffffffffffffffffffffffffffffffffffffff1673ffffffffffffffffffffffffffffffffffffffff16815260200190815260200160002060000160039054906101000a900460ff16604051808473ffffffffffffffffffffffffffffffffffffffff1673ffffffffffffffffffffffffffffffffffffffff1681526020018360ff1660ff1681526020018260ff1660ff168152602001935050505060405180910390a1610cf0565b60001515600160003373ffffffffffffffffffffffffffffffffffffffff1673ffffffffffffffffffffffffffffffffffffffff16815260200190815260200160002060000160029054906101000a900460ff1615151480156109575750600160003373ffffffffffffffffffffffffffffffffffffffff1673ffffffffffffffffffffffffffffffffffffffff16815260200190815260200160002060000160009054906101000a900460ff1660ff16600160003373ffffffffffffffffffffffffffffffffffffffff1673ffffffffffffffffffffffffffffffffffffffff16815260200190815260200160002060000160039054906101000a900460ff1660ff16105b15610b17573373ffffffffffffffffffffffffffffffffffffffff166108fc600160003373ffffffffffffffffffffffffffffffffffffffff1673ffffffffffffffffffffffffffffffffffffffff16815260200190815260200160002060000160049054906101000a900460ff1660ff169081150290604051600060405180830381858888f193505050501580156109f4573d6000803e3d6000fd5b507ff2c19256ceef03eec7a00ba5e27726b55e9224b711266400dfe19267ac36f44d33600160003373ffffffffffffffffffffffffffffffffffffffff1673ffffffffffffffffffffffffffffffffffffffff16815260200190815260200160002060000160009054906101000a900460ff16600160003373ffffffffffffffffffffffffffffffffffffffff1673ffffffffffffffffffffffffffffffffffffffff16815260200190815260200160002060000160039054906101000a900460ff16604051808473ffffffffffffffffffffffffffffffffffffffff1673ffffffffffffffffffffffffffffffffffffffff1681526020018360ff1660ff1681526020018260ff1660ff168152602001935050505060405180910390a1610cef565b6000809054906101000a900473ffffffffffffffffffffffffffffffffffffffff1673ffffffffffffffffffffffffffffffffffffffff166108fc600160003373ffffffffffffffffffffffffffffffffffffffff1673ffffffffffffffffffffffffffffffffffffffff16815260200190815260200160002060000160049054906101000a900460ff1660ff169081150290604051600060405180830381858888f19350505050158015610bd0573d6000803e3d6000fd5b507ff2c19256ceef03eec7a00ba5e27726b55e9224b711266400dfe19267ac36f44d33600160003373ffffffffffffffffffffffffffffffffffffffff1673ffffffffffffffffffffffffffffffffffffffff16815260200190815260200160002060000160009054906101000a900460ff16600160003373ffffffffffffffffffffffffffffffffffffffff1673ffffffffffffffffffffffffffffffffffffffff16815260200190815260200160002060000160039054906101000a900460ff16604051808473ffffffffffffffffffffffffffffffffffffffff1673ffffffffffffffffffffffffffffffffffffffff1681526020018360ff1660ff1681526020018260ff1660ff168152602001935050505060405180910390a15b5b33600160003373ffffffffffffffffffffffffffffffffffffffff1673ffffffffffffffffffffffffffffffffffffffff16815260200190815260200160002060000160009054906101000a900460ff16600160003373ffffffffffffffffffffffffffffffffffffffff1673ffffffffffffffffffffffffffffffffffffffff16815260200190815260200160002060000160039054906101000a900460ff16829250925092509250909192565b6000809054906101000a900473ffffffffffffffffffffffffffffffffffffffff1681565b6000600a444201811515610dd457fe5b0690509056fea165627a7a72305820c3d9f5dc070acd9944afcfe46493b32922fedbce244964bf3b70bd57c00e028b0029",
  "source": "pragma solidity ^0.5.0;\r\ncontract Dice {\r\n    \r\n    \r\n    address payable public receiver;\r\n    struct Bet{\r\n\t\tuint8  currentBet;\r\n\t\tbool   isBetSet;\t\r\n\t\tbool   isHigher;\r\n\t\tuint8  destiny;\r\n\t\tuint8 bet;\r\n\t}\r\n\r\n\tmapping(address => Bet) private bets;\r\n\tevent NewBetIsSet(address bidder , uint8 currentBet);\r\n\r\n\tevent GameResult(address bidder, uint8 currentBet , uint8 destiny);\r\n\t\r\n   function getNewbet(uint8 _bet, bool _isHigher) external payable returns(uint8){\r\n\t\trequire(bets[msg.sender].isBetSet == false);\r\n\t\tbets[msg.sender].isBetSet = true;\r\n\t\t\r\n\t\tbets[msg.sender].currentBet = random();\r\n\t\tbets[msg.sender].bet=_bet;\r\n        bets[msg.sender].isHigher=_isHigher;\r\n\t\temit NewBetIsSet(msg.sender,bets[msg.sender].currentBet);\r\n\t\treturn bets[msg.sender].currentBet;\r\n\t}\r\n\t\r\n\tfunction roll() public returns(address , uint8 , uint8){\r\n\t\trequire(bets[msg.sender].isBetSet == true);\r\n\t\tbets[msg.sender].destiny = random()+1;\r\n\t\t\r\n\t\tbets[msg.sender].isBetSet = false;\r\n\t\tif(bets[msg.sender].isHigher==true && bets[msg.sender].destiny> bets[msg.sender].currentBet ){\r\n\t\t\tmsg.sender.transfer(bets[msg.sender].bet);\r\n\t\t\temit GameResult(msg.sender, bets[msg.sender].currentBet, bets[msg.sender].destiny);\t\r\n\r\n\t\t}\r\n        else if(bets[msg.sender].isHigher==false && bets[msg.sender].destiny< bets[msg.sender].currentBet ){\r\n            msg.sender.transfer(bets[msg.sender].bet);\r\n\t\t\temit GameResult(msg.sender, bets[msg.sender].currentBet, bets[msg.sender].destiny);\r\n        }\r\n        else{\r\n\t\t    receiver.transfer(bets[msg.sender].bet);\r\n\t\t\temit GameResult(msg.sender, bets[msg.sender].currentBet, bets[msg.sender].destiny);\r\n\t\t}\r\n\t\treturn (msg.sender , bets[msg.sender].currentBet , bets[msg.sender].destiny);\r\n\t}\r\n\t\r\n    function random() private view returns (uint8) {\r\n       return uint8(uint256(block.timestamp+block.difficulty)%10);\r\n   }\r\n   function()  external payable{}\r\n      \r\n    \r\n    \r\n\r\n\r\n}",
  "sourcePath": "C:/Users/Administrator/Desktop/what/contracts/Dice.sol",
  "compiler": {
    "name": "solc",
    "version": "0.5.0+commit.1d4f565a.Emscripten.clang"
  },
  "schemaVersion": "3.0.2",
  "updatedAt": "2019-06-02T16:11:00.045Z",
  "devdoc": {
    "methods": {}
  },
  "userdoc": {
    "methods": {}
  }
}